:020000040800F2
:1000000000A00020C1140008A9130008B1130008C3
:10001000B9130008C1130008C9130008000000004C
:10002000000000000000000000000000D1130008E4
:10003000DF13000800000000ED130008FB130008A8
:1000400011150008111500081115000811150008F8
:1000500011150008111500081115000811150008E8
:1000600011150008111500081115000811150008D8
:1000700011150008111500081115000811150008C8
:1000800011150008111500081115000811150008B8
:1000900009140008111500081115000811150008B1
:1000A0001115000811150008111500081115000898
:1000B000111500081D14000811150008111500087D
:1000C0001115000811150008111500081115000878
:1000D0001115000811150008111500081115000868
:1000E0001115000811150008111500081115000858
:1000F0001115000811150008111500081115000848
:1001000000000000000000000000000011150008C1
:100110001115000811150008111500081115000827
:100120001115000811150008111500081115000817
:100130001115000811150008000000000000000063
:100140001115000811150008111500080000000025
:10015000000000000000000000000000000000009F
:100160000000000000000000111500081115000833
:100170001115000800000000000000000000000051
:08018000000000001115000849
:1001900010B5054C237833B9044B13B10448AFF3C1
:1001A00000800123237010BDD0010020000000005A
:1001B000DCCA000808B5034B1BB103490348AFF381
:1001C000008008BD00000000D4010020DCCA000847
:1001D000034613F8012B002AFBD1181A0138704787
:1001E00001F0FF01102A2BDB10F0070F08D010F8E8
:1001F000013B013A8B422DD010F0070F42B3F6D1EC
:10020000F0B441EA012141EA014122F007047FF004
:1002100000070023F0E80256083C85EA010586EA5B
:10022000010685FA47F5A3FA87F586FA47F6A5FA97
:1002300087F68EB9EED1F0BC01F0FF0102F00702A3
:1002400032B110F8013B013A83EA010313B1F8D14E
:100250000020704701387047002D06BF354603382F
:10026000073815F0010F07D1013015F4807F02BF68
:10027000013015F4C03F0130F0BC0138704700BFB9
:1002800090B5ADF2FC4D02AF01F044F900F0ECFC8A
:1002900000F0BAFE00F0BAFD00F0F8FD00F046FDF7
:1002A0000BF0F4F900F080FE00F02EFE0021D048A3
:1002B00001F0F5FD002200211D2002F09AFC1D2016
:1002C00002F0B3FCCB4806F043F94FF47A7001F02A
:1002D00087F900BF07F2674102230122C64806F0F2
:1002E00040FE0346002BF5D04FF0FF330622C349F2
:1002F000C14806F0ADFD4FF4FA7001F071F900BF8E
:1003000007F2674102230122BB4806F02AFE03469A
:10031000002BF5D04FF0FF330D22B949B64806F057
:1003200097FD4FF4FA7001F05BF900BF07F26741E7
:1003300002230122B04806F014FE0346002BF5D03C
:1003400007F57970AF4B0093AF4BB04A80210BF0AB
:1003500069FE07F579731846FFF73AFF03469AB22C
:1003600007F579714FF0FF33A34806F071FD4FF4A4
:10037000FA5001F035F900BF07F26741022301226C
:100380009D4806F0EEFD0346002BF5D04FF0FF33FD
:100390000D229F49984806F05BFD4FF47A7001F0FA
:1003A0001FF900BF07F2674102230122924806F0BD
:1003B000D8FD0346002BF5D04FF0FF3313229549AB
:1003C0008D4806F045FD4FF47A7001F009F900BF41
:1003D00007F2674102230122874806F0C2FD034667
:1003E000002BF5D08C4B1B68012B40F0D78007F514
:1003F0009E63A3F594731A460023136053609360C1
:10040000D3601361536107F59E63A3F594731022C3
:100410001A6007F59E63A3F5947301225A6007F5ED
:100420009E63A3F5947306229A6007F59E63A3F575
:1004300094730022DA6007F5727319466C4801F074
:10044000A1FD6B4801F0D0FA4FF0FF31684801F090
:1004500017FC674801F016FDC7F8D004644801F0A6
:10046000D9FB07F59E63A3F5947312221A6007F572
:10047000727319465E4801F085FD5D4801F0B4FADB
:100480004FF0FF315A4801F0FBFB594801F0FAFCEC
:10049000C7F8CC04564801F0BDFBD7F8D03407EEBE
:1004A000903AB8EE677A5D4B1B8807EE903AF8EE0B
:1004B000E77A67EE276AD7F8CC3407EE903AB8EEC1
:1004C000677AC6EE877A07F59963C3ED007A544BD5
:1004D0001B8807EE903AF8EEE77A07F5996393EDFB
:1004E000007A77EE677A9FED4F7A67EE876A4E4B18
:1004F0001B881A464A4B1B88D31A07EE903AB8EE6F
:10050000E77AC6EE877AB3EE0E7A77EE877A07F24D
:10051000C443C3ED007A07F2C443D3ED007A9FEDE4
:10052000437A67EE877AFDEEE77A17EE903AC7F8DE
:10053000C034D7F8C0343E4A82FB03125211DB1795
:10054000D41AD7F8C0243A4B83FB02135911D3179E
:10055000CB1A642101FB03F3D31A002BB8BF5B4213
:1005600007F58D6000932346324A40210BF05AFD77
:10057000C7F8BC0407F58D6307F5E2702E4A4021E9
:100580000BF050FDC7F8B80407F5E273D7F8B814BC
:1005900018460BF039F9204B00221A6007F2E331BC
:1005A0000A230122144806F0DCFC0346002B7FF4EA
:1005B00019AF224B1B88B3F5FF7F0DD81F4B1B884B
:1005C0005A1C91B21D4A11801A4607F59E63A3F288
:1005D0000D1319781A4B995407F59E63A3F20D1366
:1005E0001B780A2B7FF4FEAE144B1B881A4629E0B9
:1005F000EC010020F402002040030020F4CA0008AF
:10060000FCCA000830CB00080CCB000818CB00084F
:100610003CCB00084CCB000800000020BAF7FF1FBD
:10062000B8F7FF1F0000A042C2F7FF1F0000C8423A
:100630001F85EB5160CB000868CB0008C803002081
:10064000CC030020B84B00219954B849B6480BF0B0
:10065000B8FD0346002B0ED1B549B3480BF0B1FDF0
:100660000346002B07D1B349AF480BF0AAFD034660
:10067000002B00F08D804FF47A7000F0B1FF00BFC6
:1006800007F2674102230122AB4806F06AFC0346E9
:10069000002BF5D04FF0FF330622A849A64806F0FC
:1006A000D7FB4FF4FA7000F09BFF00BF07F26741E1
:1006B00002230122A04806F054FC0346002BF5D08B
:1006C0004FF0FF330D229E499B4806F0C1FB4FF4CB
:1006D000FA7000F085FF00BF07F267410223012294
:1006E000954806F03EFC0346002BF5D007F57970DF
:1006F000944B0093944B954A80210BF093FC07F5A3
:1007000079731846FFF764FD03469AB207F57971CD
:100710004FF0FF33884806F09BFB41F2883000F031
:100720005FFF00BF07F2674102230122824806F003
:1007300018FC0346002BF5D04FF0FF330D228449FF
:100740007D4806F085FB4FF4FA7000F049FF00BFCA
:1007500007F2674102230122774806F002FC0346B4
:10076000002BF5D04FF0FF3313227A49724806F080
:100770006FFB4FF4FA7000F033FF00BF07F26741E0
:10078000022301226C4806F0ECFB0346002BF5D057
:10079000714965480BF015FD0346002B00F03E82C1
:1007A0006E4961480BF00DFD0346002B00F03682C8
:1007B0000023C7F8EC346A495B480BF002FDC7F828
:1007C000B404D7F8B434002B07D0D7F8B4340533C9
:1007D00018460BF023FCC7F8EC04624952480BF0B2
:1007E000F0FC0346002B00F0D58107F59E63A3F2D1
:1007F000AC43184640231A4600210BF0CDFC07F508
:100800009E63A3F26C43184640231A4600210BF066
:10081000C3FC554944480BF0D4FCC7F8B004D7F8E2
:10082000B034002B31D0D7F8B0340533C7F8B0342A
:100830002621D7F8B0040BF0B7FCC7F8E404D7F8CA
:10084000E434002B06D12021D7F8B0040BF0ACFC27
:10085000C7F8E404D7F8E434002B16D0D7F8E42422
:10086000D7F8B034D31AC7F8E034D7F8E0343F2BC8
:1008700002DD3F23C7F8E034D7F8E02407F1440352
:10088000D7F8B01418460BF0DFFC384926480BF0B7
:1008900098FCC7F8AC04D7F8AC34002B31D0D7F8AB
:1008A000AC340533C7F8AC342021D7F8AC040BF0D6
:1008B0007BFCC7F8DC04D7F8DC34002B06D12621FA
:1008C000D7F8AC040BF070FCC7F8DC04D7F8DC34C4
:1008D000002B16D0D7F8DC24D7F8AC34D31AC7F8DD
:1008E000D834D7F8D8343F2B02DD3F23C7F8D834AB
:1008F000D7F8D82407F18403D7F8AC1418460BF0C6
:10090000A3FC07F59E63A3F2AC431B78002B31D008
:1009100007F1C403164A4FF4807118460BF082FBAE
:10092000C7F8E80430E000BFCC03002070CB00081B
:1009300078CB000884CB000840030020F4CA0008EC
:10094000FCCA000830CB00080CCB000818CB00080C
:100950003CCB00084CCB00088CCB000894CB0008A3
:100960009CCB0008A4CB0008B0CB0008B8CB000893
:10097000C0CB000807F1C403AB4A4FF4807118469E
:100980000BF050FBC7F8E804381DD7F8E8340093A3
:10099000D7F8EC34A54A40210BF044FB3B1D184628
:1009A000FFF716FC03469AB2391D4FF0FF33A048FB
:1009B00006F04EFAC82000F013FED7F8E8349AB2D9
:1009C00007F1C4014FF0FF33994806F041FAC820FF
:1009D00000F006FE381DD7F8EC34964A40210BF0A3
:1009E00021FB3B1D1846FFF7F3FB03469AB2391D66
:1009F0004FF0FF338E4806F02BFAC82000F0F0FDD0
:100A000007F59E63A3F2AC431B78002B00F0068130
:100A10004FF0FF3310228849854806F019FAC820A4
:100A200000F0DEFD4FF0FF330A228449804806F0D3
:100A30000FFA4FF4FA7000F0D3FD00BF07F26741E0
:100A4000022301227A4806F08CFA0346002BF5D0E7
:100A500007F1440207F5797007F184030093134608
:100A6000774A80210BF0DEFA07F579731846FFF715
:100A7000AFFB03469AB207F579714FF0FF336C482C
:100A800006F0E6F900F0A0FDC7F8A8040023A7F8D7
:100A9000D63407F5E2734FF40072002118460BF0CC
:100AA0007BFB53E007F2C73132230122604806F096
:100AB00058FA0346002B49D1B7F8D634B3F5FF7F77
:100AC0000FD8B7F8D6345A1CA7F8D6241A4607F51B
:100AD0009E63A3F22913197807F59E63A3F54B7360
:100AE0009954B7F8D63407F59E62A2F54B720021EF
:100AF000D15407F5E273534918460BF062FB0346E5
:100B0000002B32D107F5E2734F4918460BF059FB21
:100B10000346002B29D107F5E2734C4918460BF028
:100B200050FB0346002B1BD107F5E27348491846DA
:100B30000BF047FB0346002B12D107F5E273454942
:100B400018460BF03EFB0346002B09D100F03CFD9C
:100B50000246D7F8A834D31A41F287329342A1D97A
:100B600041F2883000F03CFD67E74FF0FF330D2283
:100B700039492F4806F06CF9C82000F031FD4FF0DC
:100B8000FF33132235492A4806F062F9C82000F0E5
:100B900027FD43E007F58D6307F1C400304A4FF4A9
:100BA00080710BF03FFAC7F8E804381DD7F8E83435
:100BB0000093D7F8EC341D4A40210BF033FA3B1D6B
:100BC0001846FFF705FB03469AB2391D4FF0FF3375
:100BD000174806F03DF9C82000F002FDD7F8E834C8
:100BE0009AB207F1C4014FF0FF33114806F030F913
:100BF000C82000F0F5FC381DD7F8EC340D4A402130
:100C00000BF010FA3B1D1846FFF7E2FA03469AB2C2
:100C1000391D4FF0FF33064806F01AF9114B002238
:100C20001A80FFF7DFBB00BF2CCC0008A4CC000863
:100C300040030020B8CC0008CCCC0008E0CC000871
:100C400018CB0008ECCC0008F8CC000800CD000858
:100C500008CD000810CD00083CCB00084CCB0008A4
:100C600020CD0008C803002080B59EB000AF07F17A
:100C700050032822002118460BF08EFA07F13C039E
:100C800000221A605A609A60DA601A613B463C2280
:100C9000002118460BF080FA03233B654FF4A02394
:100CA0007B650023BB6501233B6610237B66022323
:100CB000FB664FF480333B674FF4E0137B6707F12B
:100CC0005003184603F074FF0346002B01D000F0D8
:100CD00035FA0F23FB6302233B6400237B644FF44C
:100CE0008063BB640023FB6407F13C0302211846C8
:100CF00004F06CFF0346002B01D000F01FFA0A4BF2
:100D00003B600023FB600023FB610023BB633B4689
:100D1000184605F06DF90346002B01D000F00EFADD
:100D200000BF7837BD4680BD2200020080B58AB082
:100D300000AF07F11C0300221A605A609A603B1D45
:100D400000221A605A609A60DA601A615A612E4B6A
:100D50004FF0A0421A602C4B4FF440325A602A4B9D
:100D600000229A60284B00221A61274B00225A76F3
:100D7000254B002283F82020234B0022DA62224BED
:100D800001229A62204B0022DA601F4B0122DA61B5
:100D90001D4B002283F830201B4B04225A611A4B52
:100DA00000221A76184B00225A63174800F03CFCC8
:100DB0000346002B01D000F0C1F90023FB6107F1CD
:100DC0001C031946104801F0C7FB0346002B01D055
:100DD00000F0B4F910237B600123BB6000233B616A
:100DE0000623FB6000237B610023BB613B1D19468A
:100DF000054801F0C7F80346002B01D000F09EF92A
:100E000000BF2837BD4680BDEC01002080B500AF93
:100E10001B4B1C4A1A601A4B1B4A5A60184B002283
:100E20009A60174B0122DA60154B00221A61144BAD
:100E300000225A61124B00229A61114B0022DA61A2
:100E40000F4B00221A620E4802F0B6F80346002B40
:100E500001D000F073F90021094802F048F9034677
:100E6000002B01D000F06AF90021054802F08AF950
:100E70000346002B01D000F061F900BF80BD00BF28
:100E80003C020020005400402B1D200080B500AF24
:100E90001B4B1C4A1A601A4B4FF482725A60184B53
:100EA00000229A60164B4FF44072DA60144B002215
:100EB0001A61134B00225A61114B4FF400729A6170
:100EC0000F4B0822DA610E4B00221A620C4B0022F3
:100ED0005A620B4B00229A62094B0722DA62084BD6
:100EE00000221A63064B08225A63054805F02EFAC1
:100EF0000346002B01D000F021F900BF80BD00BFE8
:100F0000900200200030014080B588B000AF07F1AA
:100F1000100300221A605A609A60DA603B1D0022BA
:100F20001A605A609A601E4B1E4A1A601C4B42F2AD
:100F30000F725A601A4B00229A60194B41F61F42F9
:100F4000DA60174B00221A61154B00229A6114488F
:100F500005F0A7FA0346002B01D000F0EFF84FF49C
:100F600080533B6107F1100319460D4805F05CFC06
:100F70000346002B01D000F0E1F800237B60002342
:100F8000FB603B1D1946064805F076FE0346002B24
:100F900001D000F0D3F800BF2037BD4680BD00BFB0
:100FA000F40200200004004080B500AF144B154A45
:100FB0001A60134B4FF4E1325A60114B00229A60D1
:100FC0000F4B0022DA600E4B00221A610C4B0C22F0
:100FD0005A610B4B00229A61094B0022DA61084BDF
:100FE00000221A62064B00225A62054805F0E2FE12
:100FF0000346002B01D000F0A1F800BF80BD00BF68
:10100000400300200044004080B58AB000AF07F1E3
:10101000140300221A605A609A60DA601A61374B32
:101020005B69364A43F400135361344B5B6903F444
:1010300000133B613B69314B5B69304A43F4002349
:1010400053612E4B5B6903F40023FB60FB682B4B61
:101050005B692A4A43F480035361284B5B6903F4BC
:101060008003BB60BB68254B5B69244A43F40033B3
:101070005361224B5B6903F400337B607B681F4B39
:101080005B691E4A43F4802353611C4B5B6903F484
:1010900080233B603B6800224FF60871184801F03E
:1010A00059FF37237B614FF49013BB610023FB6131
:1010B00007F114031946124801F0D2FD4FF60873E8
:1010C0007B610123BB610023FB6100233B6207F1CD
:1010D000140319460A4801F0C3FD01237B61002374
:1010E000BB610023FB6107F1140319464FF09040E8
:1010F00001F0B6FD00BF2837BD4680BD001002409C
:101100000010004880B582B000AF78607B681B6833
:10111000074A934207D1074B01221A604FF400712E
:10112000054801F02FFF00BF0837BD4680BD00BF56
:1011300000040040000000200010004880B400AF10
:1011400072B600BF00BFFDE780B582B000AF0F4BA5
:101150009B690E4A43F0010393610C4B9B6903F0BA
:1011600001037B607B68094BDB69084A43F08053CD
:10117000D361064BDB6903F080533B603B6807207B
:1011800001F02CFD00BF0837BD4680BD00100240B5
:1011900080B485B000AF78607B681B68B3F1A04F66
:1011A0000BD1094B5B69084A43F080535361064BEE
:1011B0005B6903F08053FB60FB6800BF1437BD46DA
:1011C0005DF8047B704700BF0010024080B58AB014
:1011D00000AF786007F1140300221A605A609A6029
:1011E000DA601A617B681B68174A934227D1174B54
:1011F0005B69164A43F480235361144B5B6903F423
:1012000080233B613B69C0237B611223BB610123C7
:10121000FB6103233B6204237B6207F1140319463D
:101220000B4801F01DFD094BDB69084A43F400132C
:10123000D361064BDB6903F40013FB60FB6800BF5E
:101240002837BD4680BD00BF00540040001002405A
:101250000004004880B58AB000AF786007F114033D
:1012600000221A605A609A60DA601A617B681B6813
:10127000174A934228D1174B9B69164A43F480536F
:101280009361144B9B6903F480533B613B69114BA1
:101290005B69104A43F4003353610E4B5B6903F4FE
:1012A0000033FB60FB68E0237B610223BB6100230A
:1012B000FB6103233B6205237B6207F1140319469C
:1012C0004FF0904001F0CCFC00BF2837BD4680BDF8
:1012D000003001400010024080B584B000AF78605B
:1012E0007B681B680D4A934213D10D4BDB690C4A96
:1012F00043F00203D3610A4BDB6903F00203FB6096
:10130000FB68002200211D2001F073FC1D2001F06C
:101310008CFC00BF1037BD4680BD00BF00040040FC
:101320000010024080B58AB000AF786007F1140366
:1013300000221A605A609A60DA601A617B681B6842
:10134000174A934228D1174BDB69164A43F40033FE
:10135000D361144BDB6903F400333B613B69114BF0
:101360005B69104A43F4003353610E4B5B6903F42D
:101370000033FB60FB680C237B610223BB6100230D
:10138000FB6103233B6207237B6207F114031946C9
:101390004FF0904001F064FC00BF2837BD4680BD8F
:1013A000004400400010024080B400AF00BFFDE7E1
:1013B00080B400AF00BFFDE780B400AF00BFFDE721
:1013C00080B400AF00BFFDE780B400AF00BFFDE711
:1013D00080B400AF00BFBD465DF8047B704780B4A9
:1013E00000AF00BFBD465DF8047B704780B400AF1E
:1013F00000BFBD465DF8047B704780B500AF00F0CC
:10140000CFF800BF80BD000080B500AF024801F0FA
:10141000F2FF00BF80BD00BF9C12002080B500AF6E
:10142000024805F0FFF800BF80BD00BFF4020020B5
:1014300080B586B000AF7860144A154BD31A7B6133
:101440007B693B61134B1B68002B02D1114B124A85
:101450001A60104B1A687B6813443A699A4207D2A3
:101460000AF0C6FE03460C221A604FF0FF3309E073
:10147000084B1B68FB60074B1A687B681344054ADE
:101480001360FB6818461837BD4680BD00A00020D9
:1014900000040000CC050020D818002080B400AF64
:1014A000064BD3F88830054A43F47003C2F88830FD
:1014B00000BFBD465DF8047B704700BF00ED00E053
:1014C000DFF834D0FFF7EAFF0C480D490D4A00233E
:1014D00002E0D458C4500433C4188C42F9D30A4AE9
:1014E0000A4C002301E013600432A242FBD30AF04D
:1014F00085FEFEF7C5FEFEE700A0002000000020EC
:10150000D00100203CCF0008D0010020D8180020D6
:10151000FEE7000080B500AF084B1B68074A43F0A8
:1015200010031360032001F059FB002000F008F8BD
:10153000FFF70AFE0023184680BD00BF00200240CE
:1015400080B582B000AF7860124B1A68124B1B78DE
:1015500019464FF47A73B3FBF1F3B2FBF3F3184679
:1015600001F071FB0346002B01D001230EE07B68E4
:101570000F2B0AD8002279684FF0FF3001F039FBB9
:10158000064A7B681360002300E0012318460837F1
:10159000BD4680BD040000200C0000200800002093
:1015A00080B400AF064B1B781A46064B1B681344E9
:1015B000044A136000BFBD465DF8047B704700BF5E
:1015C0000C000020D005002080B400AF034B1B6846
:1015D0001846BD465DF8047B704700BFD00500206B
:1015E00080B584B000AF7860FFF7EEFFB8607B682D
:1015F000FB60FB68B3F1FF3F05D00A4B1B781A462E
:10160000FB681344FB6000BFFFF7DEFF0246BB68C8
:10161000D31AFA689A42F7D800BF00BF1037BD4608
:1016200080BD00BF0C00002080B59AB000AF78608C
:10163000002387F8673000233B660023BB607B688C
:10164000002B01D10123C9E17B681B69002B7B685A
:101650001B6C03F01003002B76D17B681B6C002BF6
:1016600052D17B6800225A647B680022DA647B686E
:1016700000229A647B68002283F83C207868FFF798
:1016800087FD7B681B689B6803F08053002B3BD170
:10169000786801F0B7F8034687F867307B681B6C01
:1016A00003F01003002B2FD197F86730002B2BD1BC
:1016B0007B681B6C23F4885323F0020343F002027F
:1016C0007B681A647B681B689A687B681B6822F0D9
:1016D00040529A607B681B689A687B681B6842F07E
:1016E00080529A60864B1B68864AA2FB03239A0CA1
:1016F00013469B0013445B00BB6002E0BB68013BE8
:10170000BB60BB68002BF9D17B681B689B6803F04A
:101710008053002B07D07B681B689B6803F0005345
:10172000B3F1005F10D17B681B6C23F0120343F010
:1017300010027B681A647B685B6C43F001027B6873
:101740005A64012387F867307B681B6C03F0100331
:10175000002B40F0368197F86730002B40F0318144
:101760007B681B689B6803F00403002B40F0298111
:101770007B681B6C23F4817343F002027B681A645C
:101780007B681B68B3F1A04F04D07B681B685E4A7E
:10179000934201D15D4B00E05D4BFB657B681B68AC
:1017A000B3F1A04F02D1584BFB601AE07B681B6875
:1017B000554A934203D14FF0A043FB6011E07B6890
:1017C0001B68544A934202D1534BFB6009E07B688B
:1017D0001B68514A934202D14E4BFB6001E000234B
:1017E000FB607B681B689B6803F00303012B08D137
:1017F0007B681B681B6803F00103012B01D10123E7
:1018000000E00023002B1CD1FB68002B10D0FB68EC
:101810009B6803F00303012B07D1FB681B6803F0EF
:101820000103012B01D1012300E00023002B08D18B
:10183000FB6D9B6823F440327B685B681A43FB6D49
:101840009A607B685B7E5B037A68526B012A02D0E8
:101850004FF4805200E000221A437B68DB681A4391
:101860007B689B6813433A6E13433B667B6893F82F
:101870002030012B1BD17B685B7E002B09D17B685C
:101880005B6A013B5A043B6E134343F480333B666F
:101890000DE07B681B6C23F0220343F020027B6881
:1018A0001A647B685B6C43F001027B685A647B6856
:1018B0009B6A012B3AD07B681B68164A934204D07E
:1018C0007B681B68144A934228D17B689B6AB3F5F6
:1018D000307F12D07B689B6AB3F5807F0AD07B682B
:1018E0009B6AB3F5E07F02D07B689B6A18E04FF4F7
:1018F000807315E04FF4307312E04FF4E0730FE0A3
:101900000400002083DE1B43000100500003005050
:101910000007005000040050000500507B689B6ADF
:101920007A68D26A13433A6E13433B667B681B683E
:101930009B6803F00C03002B14D17B681B68DB68E9
:101940007A68126823F4804323F00203D3607B6833
:101950001B7E9A037B6893F830305B0013433A6E2A
:1019600013433B667B681B68DA681E4B13407A683A
:101970001268396E0B43D3607B681B69012B0CD155
:101980007B681B681B6B23F00F017B68DB695A1EA9
:101990007B681B680A431A6307E07B681B681A6B45
:1019A0007B681B6822F00F021A637B6800225A646E
:1019B0007B681B6C23F0030343F001027B681A640D
:1019C0000AE07B681B6C23F0120343F010027B6873
:1019D0001A64012387F8673097F86730184668372C
:1019E000BD4680BD07C0F0FF80B584B000AF786011
:1019F0000023FB737B681B689B6803F00403002BC8
:101A000040F0F9807B6893F83C30012B01D1022330
:101A1000F4E07B68012283F83C20786800F08EFEB9
:101A20000346FB73FB7B002B40F0E0807B681B6C64
:101A300023F4706323F0010343F480727B681A641B
:101A40007B681B68B3F1A04F04D07B681B686D4AAC
:101A5000934206D16C4B9B6803F01F03002B10D000
:101A600005E06A4B9B6803F01F03002B09D07B68DD
:101A70001B68B3F1A04F04D07B681B68644A934293
:101A800015D17B681B6C23F480127B681A647B6819
:101A90001B68DB6803F00073002B36D07B681B6C7F
:101AA00023F4405343F480527B681A642DE07B6832
:101AB0001B6C43F480127B681A647B681B68B3F16B
:101AC000A04F04D07B681B684E4A93420AD14FF066
:101AD000A043DB6803F00073002B14BF0123002335
:101AE000DBB208E04A4BDB6803F00073002B14BF45
:101AF00001230023DBB2002B07D07B681B6C23F48F
:101B0000405343F480527B681A647B681B6C03F477
:101B10008053B3F5805F06D17B685B6C23F00602CF
:101B20007B685A6402E07B6800225A647B6800226A
:101B300083F83C207B681B681C221A607B681B684A
:101B4000B3F1A04F04D07B681B682E4A934206D1A4
:101B50002D4B9B6803F01F03002B3ED005E02B4B61
:101B60009B6803F01F03002B37D07B681B68B3F121
:101B7000A04F04D07B681B68224A934206D1224BB7
:101B80009B6803F01F03052B27D005E01F4B9B68C4
:101B900003F01F03052B20D07B681B68B3F1A04F17
:101BA00004D07B681B68174A934206D1164B9B688A
:101BB00003F01F03092B10D005E0144B9B6803F0C2
:101BC0001F03092B09D07B681B68B3F1A04F04D019
:101BD0007B681B680E4A93420FD17B681B689A682A
:101BE0007B681B6842F004029A6006E07B68002272
:101BF00083F83C2001E00223FB73FB7B184610377F
:101C0000BD4680BD00010050000300500007005099
:101C10000004005080B584B000AF78600023FB73EF
:101C20007B6893F83C30012B01D1022323E07B68D1
:101C3000012283F83C206C21786800F049FE0346BD
:101C4000FB73FB7B002B11D1786800F0DBFD0346B2
:101C5000FB73FB7B002B09D17B681B6C23F488533F
:101C600023F0010343F001027B681A647B680022C1
:101C700083F83C20FB7B18461037BD4680BD000032
:101C800080B586B000AF7860396000233B617B6827
:101C90005B69082B02D108237B613AE07B681B68F3
:101CA000B3F1A04F04D07B681B68724A934201D104
:101CB000714B00E0714BFB60FB689B6803F01F03F6
:101CC000002B12D17B681B68DB6803F00103012B3A
:101CD0001DD17B681B6C43F020027B681A647B6813
:101CE000002283F83C200123BFE0FB689B6803F4DB
:101CF0004043002B0BD07B681B6C43F020027B68B9
:101D00001A647B68002283F83C200123ADE00C2399
:101D10007B617B681B68B3F1A04F04D07B681B68B4
:101D2000544A934206D1544B9B6803F01F03002B87
:101D300010D005E0514B9B6803F01F03002B09D026
:101D40007B681B68B3F1A04F04D07B681B684C4ACA
:101D5000934204D17B681B68DB683B610FE07B68C2
:101D60001B68B3F1A04F04D07B681B68414A9342C3
:101D700002D14FF0A04300E0414BDB683B61FFF72D
:101D800023FCB86021E03B68B3F1FF3F1DD03B6806
:101D9000002B07D0FFF718FC0246BB68D31A3A683D
:101DA0009A4212D27B681B681A687B691340002B29
:101DB0000BD17B681B6C43F004027B681A647B6860
:101DC000002283F83C2003234FE07B681B681A68DD
:101DD0007B691340002BD6D07B681B6C43F40072E8
:101DE0007B681A647B681B68DB6803F44063002B24
:101DF00031D13B6903F40053002B2CD17B681B6865
:101E00001B6803F00803082B25D17B681B689B68BF
:101E100003F00403002B12D17B681B6C23F4807247
:101E20007B681A647B681B6C03F48053002B12D10F
:101E30007B681B6C43F001027B681A640BE07B68D3
:101E40001B6C43F020027B681A647B685B6C43F078
:101E500001027B685A643B6903F48043002B03D181
:101E60007B681B687A691A60002318461837BD46DC
:101E700080BD00BF0001005000030050000700506B
:101E80000004005080B483B000AF78607B681B68AA
:101E90001B6C18460C37BD465DF8047B704780B557
:101EA00084B000AF786039600023FB737B6893F8DF
:101EB0003C30012B01D102235FE07B68012283F8D3
:101EC0003C20786800F09EFC0346FB73FB7B002BF4
:101ED0004ED17B6801221A647B681B689A687B6814
:101EE0001B6822F080429A603B68012B07D17B6817
:101EF0001B689A687B681B6842F080429A607B6826
:101F00001B689A687B681B6842F000429A60FFF782
:101F10005BFBB8601CE0FFF757FB0246BB68D31AB7
:101F20000A2B15D97B681B689B6803F00043B3F14B
:101F3000004F0DD17B681B6C23F0120343F010029D
:101F40007B681A647B68002283F83C20012314E03C
:101F50007B681B689B6803F00043B3F1004FDAD045
:101F60007B681B6C23F0030343F001027B681A6457
:101F70007B68002283F83C20FB7B18461037BD4667
:101F800080BD000080B49BB000AF78603960002352
:101F900087F867300023BB607B6893F83C30012BE7
:101FA00001D10223C8E27B68012283F83C207B68D0
:101FB0001B689B6803F00403002B40F0AC823B6875
:101FC0005B68042B1CD87B681B68196B3B685A68DC
:101FD00013465B0013445B001A461F239340DB4308
:101FE00019403B6818683B685A6813465B00134405
:101FF0005B0000FA03F27B681B680A431A6363E024
:102000003B685B68092B1ED87B681B68596B3B6873
:102010005A6813465B0013445B001E3B1F2202FA02
:1020200003F3DB4319403B6818683B685A68134662
:102030005B0013445B001E3B00FA03F27B681B68E5
:102040000A435A6340E03B685B680E2B1ED87B68EE
:102050001B68996B3B685A6813465B0013445B002E
:102060003C3B1F2202FA03F3DB4319403B6818682C
:102070003B685A6813465B0013445B003C3B00FA24
:1020800003F27B681B680A439A631DE07B681B6848
:10209000D96B3B685A6813465B0013445B005A3B9C
:1020A0001F2202FA03F3DB4319403B6818683B68C0
:1020B0005A6813465B0013445B005A3B00FA03F274
:1020C0007B681B680A43DA637B681B689B6803F0C4
:1020D0000C03002B40F0E5803B681B68092B1CD9E2
:1020E0007B681B6899693B681A6813465B00134458
:1020F0001E3B072202FA03F3DB4319403B68986852
:102100003B681A6813465B0013441E3B00FA03F257
:102110007B681B680A439A6119E07B681B685969F0
:102120003B681A6813465B001344072202FA03F364
:10213000DB4319403B6898683B681A6813465B00AC
:10214000134400FA03F27B681B680A435A613B6838
:102150005A697B681B68DB68DB0803F003035B00DC
:1021600002FA03F33B663B681B69013B032B4FD824
:1021700001A252F823F000BF89210008AB2100081A
:10218000CD210008EF2100087B681B681A6E994B6F
:1021900013403A68126891063A6E0A431A437B6804
:1021A0001B6842F000421A667BE07B681B685A6E2F
:1021B000904B13403A68126891063A6E0A431A43EC
:1021C0007B681B6842F000425A666AE07B681B68C5
:1021D0009A6E884B13403A68126891063A6E0A4329
:1021E0001A437B681B6842F000429A6659E07B689C
:1021F0001B68DA6E7F4B13403A68126891063A6E9C
:102200000A431A437B681B6842F00042DA6648E0E2
:102210007B681B681B6E03F0F8423B681B689B06DB
:102220009A4207D17B681B681A6E7B681B6822F094
:1022300000421A667B681B685B6E03F0F8423B68DD
:102240001B689B069A4207D17B681B685A6E7B68A5
:102250001B6822F000425A667B681B689B6E03F085
:10226000F8423B681B689B069A4207D17B681B6853
:102270009A6E7B681B6822F000429A667B681B6836
:10228000DB6E03F0F8423B681B689B069A4207D15D
:102290007B681B68DA6E7B681B6822F00042DA6696
:1022A00000BF7B681B689B6803F00303012B08D108
:1022B0007B681B681B6803F00103012B01D101231C
:1022C00000E00023002B40F031813B68DB68012BEC
:1022D0000FD07B681B68D3F8B0103B681B680122E5
:1022E00002FA03F3DA437B681B680A40C3F8B020A4
:1022F00049E07B681B68D3F8B0103B681B6801227B
:102300009A407B681B680A43C3F8B0203B681B688F
:10231000092B1CD97B681B6899693B681A681346AE
:102320005B0013441B3B072202FA03F3DB43194013
:102330003B6898683B681A6813465B0013441B3B74
:1023400000FA03F27B681B680A439A611BE07B6812
:102350001B6859693B681B685A1C13465B00134491
:10236000072202FA03F3DB4319403B6898683B6895
:102370001B685A1C13465B00134400FA03F27B6887
:102380001B680A435A617B681B68B3F1A04F04D0F5
:102390007B681B68184A934201D1184B00E0184B28
:1023A000FB653B681B68102B05D1FB6D9B6803F434
:1023B0000003002B15D03B681B68112B05D1FB6D6A
:1023C0009B6803F08073002B0BD03B681B68122BBB
:1023D00040F0AC80FB6D9B6803F48003002B40F061
:1023E000A5807B681B68B3F1A04F0BD1024BFB604B
:1023F00023E000BF00F0FF83000100500003005005
:10240000000700507B681B684E4A934203D14FF08F
:10241000A043FB6011E07B681B684B4A934202D1EA
:102420004A4BFB6009E07B681B68484A934202D133
:10243000454BFB6001E00023FB607B681B689B68E9
:1024400003F00303012B08D17B681B681B6803F0B2
:102450000103012B01D1012300E00023002B50D107
:10246000FB68002B10D0FB689B6803F00303012B73
:1024700007D1FB681B6803F00103012B01D1012385
:1024800000E00023002B3CD13B681B68102B1DD1C2
:102490007B681B68B3F1A04F18D1FB6D9B6843F4B8
:1024A0000002FB6D9A602A4B1B682A4AA2FB032399
:1024B0009A0C13469B0013445B00BB6002E0BB68B0
:1024C000013BBB60BB68002BF9D12EE03B681B6869
:1024D000112B0BD17B681B68B3F1A04F06D1FB6DAC
:1024E0009B6843F08072FB6D9A601EE03B681B683E
:1024F000122B1AD1FB6D9B6843F48002FB6D9A602E
:1025000013E07B681B6C43F020027B681A64012394
:1025100087F867300AE07B681B6C43F020027B6819
:102520001A64012387F8673000E000BF7B6800224F
:1025300083F83C2097F8673018466C37BD465DF845
:10254000047B70470001005000040050000500505B
:102550000400002083DE1B4380B499B000AF786094
:102560003960002387F85F307B681B68B3F1A04FA8
:1025700002D16D4BBB601AE07B681B686A4A9342CC
:1025800003D14FF0A043BB6011E07B681B68674A32
:10259000934202D1664BBB6009E07B681B68644ACA
:1025A000934202D1614BBB6001E00023BB60BB687A
:1025B000002B01D10123B0E07B6893F83C30012B64
:1025C00001D10223A9E07B68012283F83C207B68CB
:1025D0001B689B6803F00403002B40F08D80BB68F0
:1025E0009B6803F00403002B40F086807B681B6827
:1025F000B3F1A04F04D07B681B684B4A934201D1D2
:102600004C4B00E04C4BBB653B681B68002B40D03B
:10261000BB6D9B6823F460423B6859687B6893F804
:1026200030305B030B431A43BB6D9A607B681B68B9
:102630009B6803F00303012B08D17B681B681B68B0
:1026400003F00103012B01D1012300E00023002B43
:102650005CD1BB689B6803F00303012B07D1BB6807
:102660001B6803F00103012B01D1012300E00023CB
:10267000002B4BD1BB6D9B6823F4716323F00F03D8
:102680003A6811683A6892680A431A43BB6D9A60C7
:102690003CE0BB6D9B6823F46042BB6D9A607B6835
:1026A0001B689B6803F00303012B08D17B681B6840
:1026B0001B6803F00103012B01D1012300E000237B
:1026C000002B23D1BB689B6803F00303012B07D1C8
:1026D000BB681B6803F00103012B01D1012300E05B
:1026E0000023002B12D1BB6D9B6823F4716323F090
:1026F0000F03BA6D936009E07B681B6C43F0200206
:102700007B681A64012387F85F3000E000BF7B68B4
:10271000002283F83C2097F85F3018466437BD46A6
:102720005DF8047B704700BF0001005000040050BA
:1027300000050050000300500007005080B584B031
:1027400000AF78600023FB607B681B689B6803F028
:102750000303012B08D17B681B681B6803F001038E
:10276000012B01D1012300E00023002B43D17B6822
:102770001B689A68224B1340002B0DD07B681B6CA2
:1027800043F010027B681A647B685B6C43F00102C3
:102790007B685A6401232FE07B681B689A687B681A
:1027A0001B6842F001029A60FEF70EFFF8601BE022
:1027B000FEF70AFF0246FB68D31A022B14D97B6886
:1027C0001B681B6803F00103012B0DD07B681B6C99
:1027D00043F010027B681A647B685B6C43F0010273
:1027E0007B685A64012307E07B681B681B6803F061
:1027F0000103012BDCD1002318461037BD4680BDF4
:102800003F00008080B584B000AF78600023FB609B
:102810007B681B689B6803F00303012B08D17B686E
:102820001B681B6803F00103012B01D1012300E0A9
:102830000023002B47D07B681B689B6803F00D03C7
:10284000012B0FD17B681B689A687B681B6842F07C
:1028500002029A607B681B6803221A60FEF7B4FECE
:10286000F86029E07B681B6C43F010027B681A64F7
:102870007B685B6C43F001027B685A64012323E0B0
:10288000FEF7A2FE0246FB68D31A022B14D97B681E
:102890001B689B6803F00103012B0DD17B681B6C47
:1028A00043F010027B681A647B685B6C43F00102A2
:1028B0007B685A64012307E07B681B689B6803F010
:1028C0000103012BDCD0002318461037BD4680BD24
:1028D00080B586B000AF7860396000237B6100234B
:1028E000FB6000233B617B681B689B6803F00C0363
:1028F000002B00F09B807B681B68DB6803F0007393
:10290000B3F1007F2AD17B685B7E012B26D17B68E7
:102910001B7E012B22D10C233B6014E03B69464A0D
:1029200093420DD97B681B6C43F010027B681A64DC
:102930007B685B6C43F001027B685A64012376E09C
:102940003B6901333B617B681B681B6803F04003F4
:10295000402BE3D17B681B6840221A603B68602BE8
:1029600015D07B681B689B6803F00403042B0ED111
:102970007B681B689B6803F00203002B07D17B6810
:102980001B689A687B681B6842F010029A603B687B
:102990000C2B15D07B681B689B6803F00803082B81
:1029A0000ED17B681B689B6803F00203002B07D1E4
:1029B0007B681B689A687B681B6842F020029A60FB
:1029C0003B68602B05D03B686C2B05D10C237B61E9
:1029D00005E008237B6102E004237B6100BFFEF772
:1029E000F3FDF8601BE0FEF7EFFD0246FB68D31A2B
:1029F0000B2B14D97B681B689A687B691340002BEA
:102A00000DD07B681B6C43F010027B681A647B68F6
:102A10005B6C43F001027B685A64012307E07B682A
:102A20001B689A687B691340002BDCD10023184691
:102A30001837BD4680BD00BFFF93090080B485B044
:102A400000AF78607B6803F00703FB600C4BDB682A
:102A5000BB60BA684FF6FF031340BB60FB681A0205
:102A6000BB68134343F0BF6343F40033BB60044AC5
:102A7000BB68D36000BF1437BD465DF8047B704768
:102A800000ED00E080B400AF044BDB681B0A03F0EC
:102A900007031846BD465DF8047B704700ED00E073
:102AA00080B483B000AF0346FB7197F90730002B69
:102AB0000BDBFB7903F01F02074997F907305B092D
:102AC000012000FA02F241F8232000BF0C37BD4676
:102AD0005DF8047B704700BF00E100E080B483B084
:102AE00000AF03463960FB7197F90730002B0ADB12
:102AF0003B68DAB20C4997F907301201D2B20B44A5
:102B000083F800230AE03B68DAB20849FB7903F056
:102B10000F03043B1201D2B20B441A7600BF0C37EC
:102B2000BD465DF8047B704700E100E000ED00E089
:102B300080B489B000AFF860B9607A60FB6803F0D8
:102B40000703FB61FB69C3F10703042B28BF0423C0
:102B5000BB61FB690433062B02D9FB69033B00E030
:102B600000237B614FF0FF32BB6902FA03F3DA43C3
:102B7000BB681A407B699A404FF0FF317B6901FACC
:102B800003F3D9437B680B40134318462437BD46F3
:102B90005DF8047B7047000080B582B000AF7860BC
:102BA0007B68013BB3F1807F01D301230FE00A4A28
:102BB0007B68013B53600F214FF0FF30FFF78EFF22
:102BC000054B00229A60044B07221A600023184626
:102BD0000837BD4680BD00BF10E000E080B582B080
:102BE00000AF78607868FFF729FF00BF0837BD465F
:102BF00080BD80B586B000AF0346B9607A60FB73D4
:102C000000237B61FFF73EFF78617A68B9687869D5
:102C1000FFF78EFF024697F90F3011461846FFF76F
:102C20005DFF00BF1837BD4680BD80B582B000AFE4
:102C30000346FB7197F907301846FFF731FF00BFD5
:102C40000837BD4680BD80B582B000AF7860786837
:102C5000FFF7A2FF034618460837BD4680BD0000B7
:102C600080B487B000AF7860396000237B6154E1A5
:102C70003B681A6801217B6901FA03F31340FB608A
:102C8000FB68002B00F046813B685B6803F00303A0
:102C9000012B05D03B685B6803F00303022B30D1A6
:102CA0007B689B683B617B695B00032202FA03F34C
:102CB000DB433A6913403B613B68DA687B695B0040
:102CC00002FA03F33A6913433B617B683A699A60FD
:102CD0007B685B683B6101227B6902FA03F3DB439B
:102CE0003A6913403B613B685B681B0903F00102D2
:102CF0007B6902FA03F33A6913433B617B683A69E3
:102D00005A603B685B6803F00303032B17D07B68B2
:102D1000DB683B617B695B00032202FA03F3DB4360
:102D20003A6913403B613B689A687B695B0002FA31
:102D300003F33A6913433B617B683A69DA603B68A5
:102D40005B6803F00303022B23D17B69DA087B68FD
:102D5000083253F822303B617B6903F007039B0084
:102D60000F2202FA03F3DB433A6913403B613B68ED
:102D70001A697B6903F007039B0002FA03F33A69BF
:102D800013433B617B69DA087B680832396943F891
:102D900022107B681B683B617B695B00032202FA9F
:102DA00003F3DB433A6913403B613B685B6803F024
:102DB00003027B695B0002FA03F33A6913433B6148
:102DC0007B683A691A603B685B6803F44033002B08
:102DD00000F0A080584B9B69574A43F00103936170
:102DE000554B9B6903F00103BB60BB68534A7B6989
:102DF0009B08023352F823303B617B6903F00303E5
:102E00009B000F2202FA03F3DB433A6913403B6154
:102E10007B68B3F1904F19D07B68494A934213D035
:102E20007B68484A93420DD07B68474A934207D05B
:102E30007B68464A934201D1042308E0052306E05B
:102E4000032304E0022302E0012300E000237A6967
:102E500002F00302920093403A6913433B61374901
:102E60007B699B0802333A6941F82320384B9B6801
:102E70003B61FB68DB433A6913403B613B685B683D
:102E800003F48013002B03D03A69FB6813433B61C2
:102E90002F4A3B6993602E4BDB683B61FB68DB4349
:102EA0003A6913403B613B685B6803F40013002BF5
:102EB00003D03A69FB6813433B61254A3B69D36001
:102EC000234B5B683B61FB68DB433A6913403B6122
:102ED0003B685B6803F40033002B03D03A69FB685E
:102EE00013433B611A4A3B695360194B1B683B61B2
:102EF000FB68DB433A6913403B613B685B6803F462
:102F00008033002B03D03A69FB6813433B61104ABE
:102F10003B6913607B6901337B613B681A687B699D
:102F200022FA03F3002B7FF4A3AE00BF00BF1C37CF
:102F3000BD465DF8047B7047001002400000014070
:102F40000004004800080048000C00480010004839
:102F50000004014080B483B000AF78600B467B80F2
:102F600013467B707B78002B03D07A887B689A614C
:102F700002E07A887B689A6200BF0C37BD465DF834
:102F8000047B704780B485B000AF78600B467B80CF
:102F90007B685B69FB607A88FB6813401A04FB68F6
:102FA000D9437B880B401A437B689A6100BF143772
:102FB000BD465DF8047B704780B582B000AF786095
:102FC0007B68002B01D101238DE07B6893F84130B1
:102FD000DBB2002B06D17B68002283F840207868A2
:102FE000FEF7F4F87B68242283F841207B681B6895
:102FF0001A687B681B6822F001021A607B685A68B5
:103000007B681B6822F070621A617B681B689A6893
:103010007B681B6822F400429A607B68DB68012BA6
:1030200007D17B689A687B681B6842F400429A600B
:1030300006E07B689A687B681B6842F404429A60E9
:103040007B68DB68022B08D17B681B685A687B6849
:103050001B6842F400625A6007E07B681B685A688C
:103060007B681B6822F400625A607B681B685B689F
:103070007A68126843F0007343F4004353607B683E
:103080001B68DA687B681B6822F40042DA607B68A0
:103090001A697B685B6942EA03017B689B691A02D3
:1030A0007B681B680A43DA607B68D9697B681A6AA7
:1030B0007B681B680A431A607B681B681A687B6818
:1030C0001B6842F001021A607B6800225A647B6828
:1030D000202283F841207B6800221A637B6800224B
:1030E00083F84220002318460837BD4680BD80B4CF
:1030F00083B000AF786039607B6893F84130DBB211
:10310000202B38D17B6893F84030012B01D102236A
:1031100032E07B68012283F840207B68242283F818
:1031200041207B681B681A687B681B6822F00102DB
:103130001A607B681B681A687B681B6822F48052DF
:103140001A607B681B6819687B681B683A680A43C9
:103150001A607B681B681A687B681B6842F0010272
:103160001A607B68202283F841207B68002283F864
:103170004020002300E0022318460C37BD465DF8CE
:10318000047B704780B485B000AF786039607B689D
:1031900093F84130DBB2202B39D17B6893F8403073
:1031A000012B01D1022333E07B68012283F8402008
:1031B0007B68242283F841207B681B681A687B683F
:1031C0001B6822F001021A607B681B681B68FB60A9
:1031D000FB6823F47063FB603B681B02FA681343CF
:1031E000FB607B681B68FA681A607B681B681A685A
:1031F0007B681B6842F001021A607B68202283F81A
:1032000041207B68002283F84020002300E0022355
:1032100018461437BD465DF8047B704780B584B00E
:1032200000AF78607B68002B01D10123B9E07B6897
:1032300093F89132DBB2002B06D17B68002283F831
:103240009022786808F016FC7B68032283F89122AC
:103250007B681B68184604F041FB0023FB733EE0CB
:10326000FA7B796813469B001344DB000B4411334F
:1032700001221A70FA7B796813469B001344DB0025
:103280000B441033FA7B1A70FA7B796813469B0063
:103290001344DB000B44133300221A70FA7B796865
:1032A00013469B001344DB000B44203300221A60BA
:1032B000FA7B796813469B001344DB000B442433EC
:1032C00000221A60FB7B79685A1C13469B0013444A
:1032D000DB000B4400221A60FB7B0133FB737B682D
:1032E0001B79FA7B9A42BBD30023FB7344E0FA7B41
:1032F000796813469B001344DB000B4403F251131F
:1033000000221A70FA7B796813469B001344DB0095
:103310000B4403F5A873FA7B1A70FA7B796813469D
:103320009B001344DB000B4403F2531300221A707A
:10333000FA7B796813469B001344DB000B4403F5CA
:10334000B07300221A60FA7B796813469B0013441D
:10335000DB000B4403F5B27300221A60FA7B796834
:1033600013469B001344DB000B4403F5B4730022A7
:103370001A60FB7B0133FB737B681B79FA7B9A42F3
:10338000B5D37B6818687B68043393E8060004F0C3
:10339000C0FA7B6800221A737B68012283F89122AD
:1033A000002318461037BD4680BD80B582B000AFFF
:1033B00078607B6893F89032012B01D1022316E0EC
:1033C0007B68012283F890227B681B68184604F012
:1033D0006EFA0121786808F0E9FD7B681B681846E1
:1033E00006F02CFD7B68002283F89022002318460B
:1033F0000837BD4680BD80B584B000AF78607B687B
:103400001B68184606F025FDF860FB6803F40043CE
:10341000002B03D0786800F0B1FABDE0FB6803F43C
:103420008063002B13D07B681B68B3F844309AB2DA
:103430007B681B6822F4806292B2A3F8442078680B
:1034400008F0B9FB0021786800F0A9F8A4E0FB6857
:1034500003F48043002B0CD07B681B68B3F8443026
:103460009AB27B681B6822F4804292B2A3F844208F
:1034700092E0FB6803F40053002B0CD07B681B68C0
:10348000B3F844309AB27B681B6822F4005292B2BF
:10349000A3F8442080E0FB6803F48053002B27D07E
:1034A0007B681B68B3F840309AB27B681B6822F0D7
:1034B000040292B2A3F840207B681B68B3F8403046
:1034C0009AB27B681B6822F0080292B2A3F84020EF
:1034D000786808F0A9FB7B681B68B3F844309AB29F
:1034E0007B681B6822F4805292B2A3F8442053E018
:1034F000FB6803F40063002B27D07B681B68B3F8DC
:1035000040309AB27B681B6842F0080292B2A3F87E
:1035100040207B681B68B3F844309AB27B681B6814
:1035200022F4006292B2A3F844207B681B68B3F8CF
:1035300040309AB27B681B6842F0040292B2A3F852
:103540004020786808F056FB26E0FB6803F400731F
:10355000002B0FD07B681B68B3F844309AB27B68AD
:103560001B6822F4007292B2A3F84420786808F035
:1035700014FB11E0FB6803F48073002B0CD07B6814
:103580001B68B3F844309AB27B681B6822F48072DF
:1035900092B2A3F8442000BF1037BD4680BD80B56D
:1035A00082B000AF78600B46FB707B6893F8903276
:1035B000012B01D1022312E07B68012283F89022C3
:1035C0007B68FA781A737B681B68FA78114618468C
:1035D00006F020FC7B68002283F890220023184626
:1035E0000837BD4680BD80B584B000AF786008461E
:1035F00011461A460346FB700B463B801346BB70D0
:103600000023FB7297F90330002B0EDAFB7803F0EE
:10361000070213469B001344DB0010337A681344FF
:10362000FB60FB6801225A700EE0FB7803F0070292
:1036300013469B001344DB0003F5A8737A68134418
:10364000FB60FB6800225A70FB7803F00703DAB2D4
:10365000FB681A703A88FB681A61FB68BA78DA70FE
:10366000BB78022B02D1FB6800221A717B6893F8A9
:103670009032012B01D102230EE07B68012283F8F6
:1036800090227B681B68F968184604F061F97B6832
:10369000002283F89022FB7A18461037BD4680BD81
:1036A00080B584B000AF78600B46FB7097F90330AB
:1036B000002B0EDAFB7803F0070213469B0013443D
:1036C000DB0010337A681344FB60FB6801225A70F8
:1036D0000EE0FB7803F0070213469B001344DB0067
:1036E00003F5A8737A681344FB60FB6800225A70E4
:1036F000FB7803F00703DAB2FB681A707B6893F873
:103700009032012B01D102230EE07B68012283F865
:1037100090227B681B68F968184604F0DDFC7B6822
:10372000002283F89022002318461037BD4680BD42
:1037300080B586B000AFF8607A603B600B46FB72E4
:10374000FB7A03F0070213469B001344DB0003F5EA
:10375000A873FA6813447B617B697A685A617B6954
:103760003A689A617B690022DA617B6900225A70AB
:10377000FB7A03F00703DAB27B691A70FB681B68F7
:103780007969184604F095FE002318461837BD469F
:1037900080BD80B483B000AF78600B46FB70FB78CF
:1037A00003F00702796813469B001344DB000B44C7
:1037B00003F5B6731B6818460C37BD465DF8047BED
:1037C000704780B586B000AFF8607A603B600B460A
:1037D000FB72FB7A03F0070213469B001344DB00E5
:1037E0001033FA6813447B617B697A685A617B699C
:1037F0003A689A617B69012283F824207B693A68E0
:103800001A627B690022DA617B6901225A70FB7AB5
:1038100003F00703DAB27B691A70FB681B687969E9
:10382000184604F046FE002318461837BD4680BDF2
:1038300080B584B000AF78600B46FB70FB7803F076
:1038400007037A681279934201D901233EE097F980
:103850000330002B0EDAFB7803F0070213469B00BF
:103860001344DB0010337A681344FB60FB680122C9
:103870005A700CE0FA7813469B001344DB0003F502
:10388000A8737A681344FB60FB6800225A70FB68D7
:1038900001229A70FB7803F00703DAB2FB681A7012
:1038A0007B6893F89032012B01D102230EE07B68F4
:1038B000012283F890227B681B68F968184606F09D
:1038C000AAF97B68002283F890220023184610375B
:1038D000BD4680BD80B584B000AF78600B46FB70FC
:1038E000FB7803F00F037A681279934201D9012320
:1038F00040E097F90330002B0EDAFB7803F0070263
:1039000013469B001344DB0010337A681344FB60BA
:10391000FB6801225A700EE0FB7803F007021346A1
:103920009B001344DB0003F5A8737A681344FB6023
:10393000FB6800225A70FB6800229A70FB7803F043
:103940000703DAB2FB681A707B6893F89032012B98
:1039500001D102230EE07B68012283F890227B686C
:103960001B68F968184606F0A7F97B68002283F8FF
:103970009022002318461037BD4680BD80B596B012
:1039800000AF7860BBE37B681B68B3F84430A7F8EE
:103990004830B7F84830DBB203F00F0387F84F30F8
:1039A00097F84F30002B40F07581B7F8483003F09E
:1039B0001003002B4ED17B681B681B889BB223F43D
:1039C000E14323F07003FB817B681A68FB896FEA8F
:1039D00043436FEA53439BB213807B6810337B658C
:1039E0007B681B68B3F850309BB21A467B6D1B781E
:1039F000DB00134402335B007A681268134403F55A
:103A000080631B88C3F309027B6DDA617B6D5A69A1
:103A10007B6DDB691A447B6D5A610021786808F080
:103A2000A2F87B681B7BDBB2002B00F068837B6D08
:103A30009B69002B40F063837B681B7BDBB263F0E8
:103A40007F03DAB27B681B68A3F84C207B680022F6
:103A50001A7354E37B6803F5A8737B657B681B6866
:103A60001B88A7F84C30B7F84C3003F40063002BE8
:103A700034D07B681B68B3F850309BB21A467B6D1C
:103A80001B78DB00134406335B007A68126813442A
:103A900003F580631B88C3F309027B6DDA617B68E1
:103AA00018687B6803F526717B6DDA887B6DDB69AE
:103AB0009BB206F025FA7B681B681B889AB240F619
:103AC0008F7313403B827B681B683A8A42F0800206
:103AD00092B21A80786808F019F810E3B7F94C3000
:103AE000002B80F20C837B681B681B889AB240F61F
:103AF0008F731340FB837B681B68FA8B42F0800254
:103B000092B21A807B681B68B3F850309BB21A4699
:103B10007B6D1B78DB00134406335B007A68126808
:103B2000134403F580631B88C3F309027B6DDA61DC
:103B30007B6DDB69002B19D07B6D5B69002B15D089
:103B40007B6818687B6D59697B6DDA887B6DDB69F2
:103B50009BB206F0D5F97B6D5A697B6DDB691A441F
:103B60007B6D5A610021786807F0E2FF7B681B6873
:103B70001B88A7F84C30B7F84C3003F40063002BD7
:103B800040F0BD82B7F84C3003F44053B3F5405FCA
:103B900000F0B5827B681B68BB617B681B68B3F86B
:103BA00050309BB21A46BB691344BB61BB6903F238
:103BB0000C437B617B691B889BB2C3F309039AB2F8
:103BC0007B691A807B6D1B69002B0AD17B691B887E
:103BD0009BB26FEA43436FEA53439AB27B691A8000
:103BE00039E07B6D1B693E2B18D87B6D1B695B0828
:103BF0007B647B6D1B6903F00103002B02D07B6C9F
:103C000001337B647B691B889AB27B6C9BB29B02FD
:103C10009BB213439AB27B691A801CE07B6D1B69CF
:103C20005B097B647B6D1B6903F01F03002B02D1D2
:103C30007B6C013B7B647B691B889AB27B6C9BB27B
:103C40009B029BB213439BB26FEA43436FEA534319
:103C50009AB27B691A807B681B681B889BB223F42D
:103C6000804323F070037B827B8A83F480537B82C2
:103C70007B8A83F400537B827B681A687B8A43F0DB
:103C80007F4343F47F0343F4004343F080039BB23C
:103C9000138034E27B681B681A4697F84F309B000C
:103CA00013441B88A7F84C30B7F94C30002B80F236
:103CB000FC807B681B681A4697F84F309B001344C2
:103CC0001B889AB240F68F731340A7F84A307B687E
:103CD0001B681A4697F84F309B001344B7F84A20E8
:103CE00042F0800292B21A8097F84F2013469B0050
:103CF0001344DB0003F5A8737A6813447B657B6D7E
:103D00001B7B002B25D17B681B68B3F850309BB21E
:103D10001A467B6D1B78DB00134406335B007A6820
:103D20001268134403F580631B88C3F30903A7F8E3
:103D30005030B7F85030002B00F092807B68186844
:103D40007B6D59697B6DDA88B7F8503006F0D8F88A
:103D500086E07B6DDB78022B0AD1B7F84C301A462F
:103D6000796D786800F0D9F90346A7F8503077E00C
:103D70007B681B681A467B6D1B789B0013441B886D
:103D80009BB223F4E04323F07003A7F852307B6822
:103D90001B681A467B6D1B789B001A44B7F852309B
:103DA00043F07F4343F47F0343F4004343F0C003F5
:103DB0009BB213807B681B681A467B6D1B789B0047
:103DC00013441B889BB203F48043002B24D07B68F0
:103DD0001B68B3F850309BB21A467B6D1B78DB0032
:103DE000134402335B007A681268134403F580635E
:103DF0001B88C3F30903A7F85030B7F85030002BE5
:103E00002ED07B6818687B6D59697B6D1A89B7F86D
:103E1000503006F075F823E07B681B68B3F850302B
:103E20009BB21A467B6D1B78DB00134406335B00A4
:103E30007A681268134403F580631B88C3F309038F
:103E4000A7F85030B7F85030002B09D07B681868BD
:103E50007B6D59697B6D5A89B7F8503006F050F880
:103E60007B6DDA69B7F850301A447B6DDA617B6D8F
:103E70005A69B7F850301A447B6D5A617B6D9B6963
:103E8000002B05D0B7F850207B6D1B699A4206D2F3
:103E90007B6D1B781946786807F04AFE05E07B6861
:103EA0001B68796D184604F004FBB7F84C3003F03A
:103EB0008003002B00F0238197F84F2013469B00CE
:103EC0001344DB0010337A6813447B657B681B68FE
:103ED0001A4697F84F309B0013441B889BB223F47B
:103EE000E14323F07003A7F842307B681B681A4651
:103EF00097F84F309B001A44B7F842306FEA4343BB
:103F00006FEA53439BB213807B6DDB78012B40F04B
:103F1000A2807B6D00229A617B6D1B7B002B00F0E1
:103F20009380B7F84C3003F04003002B46D07B6DF4
:103F30005B78002B26D17B681B687B627B681B68E3
:103F4000B3F850309BB21A467B6A13447B627B6D98
:103F50001B781A017B6A134403F204433B623B6AF9
:103F60001B889BB2C3F309039AB23B6A1A803B6A6F
:103F70001B889BB26FEA43436FEA53439AB23B6A92
:103F80001A8061E07B6D5B78012B5DD17B681B68DB
:103F9000FB627B681B68B3F850309BB21A46FB6A21
:103FA0001344FB627B6D1B781A01FB6A134403F216
:103FB0000443BB62BB6A00221A8045E07B681B6831
:103FC000FB637B6D5B78002B26D17B681B687B6372
:103FD0007B681B68B3F850309BB21A467B6B134466
:103FE0007B637B6D1B781A017B6B134403F20C43DC
:103FF0003B633B6B1B889BB2C3F309039AB23B6BD9
:104000001A803B6B1B889BB26FEA43436FEA5343B2
:104010009AB23B6B1A8017E07B6D5B78012B13D152
:104020007B681B68B3F850309BB21A46FB6B134495
:10403000FB637B6D1B781A01FB6B134403F20C438B
:10404000BB63BB6B00221A807B6D1B7819467868B6
:1040500007F089FD53E0B7F84C3003F48073002B70
:1040600046D17B681B68B3F850309BB21A467B6D13
:104070001B78DB00134402335B007A681268134438
:1040800003F580631B88C3F30903A7F840307B6DF9
:104090009A69B7F840309A4207D97B6D9A69B7F8A8
:1040A0004030D21A7B6D9A6102E07B6D00229A61EA
:1040B0007B6D9B69002B06D17B6D1B781946786858
:1040C00007F051FD1BE07B6D5A69B7F840301A4488
:1040D0007B6D5A617B6DDA69B7F840301A447B6DAD
:1040E000DA617B681B68796D184604F0E2F906E036
:1040F000B7F84C301A46796D786800F01BF97B6888
:104100001B68B3F844309BB21BB2002BFFF63BACEC
:10411000002318465837BD4680BD80B588B000AF33
:10412000F860B9601346FB80FB8803F48043002BE2
:104130007ED0FB681B68B3F850309BB21A46BB6850
:104140001B78DB00134402335B00FA6812681344E7
:1041500003F580631B88C3F309037B83BB689A69FB
:104160007B8B9A4206D3BB689A697B8BD21ABB6859
:104170009A6102E0BB6800229A61BB689B69002BD0
:1041800023D1FB681B681A46BB681B789B0013444D
:104190001B889BB223F4804323F070033B833B8B4B
:1041A00083F400533B83FB681B681A46BB681B788B
:1041B0009B001A443B8B43F07F4343F47F0343F45B
:1041C000004343F080039BB21380FB8803F040035D
:1041D000002B1FD0FB681B681A46BB681B789B002E
:1041E00013441B889BB223F4E04323F07003FB824B
:1041F000FB681B681A46BB681B789B001A44FB8A45
:1042000043F07F4343F47F0343F4004343F0C00390
:104210009BB213807B8B002B00F08780FB681868B3
:10422000BB685969BB681A897B8B05F069FE7CE025
:10423000FB681B68B3F850309BB21A46BB681B780A
:10424000DB00134406335B00FA681268134403F57D
:1042500080631B88C3F309037B83BB689A697B8BEC
:104260009A4206D3BB689A697B8BD21ABB689A6163
:1042700002E0BB6800229A61BB689B69002B23D1D6
:10428000FB681B681A46BB681B789B0013441B889D
:104290009BB223F4804323F07003FB83FB8B83F4F6
:1042A0000053FB83FB681B681A46BB681B789B00A6
:1042B0001A44FB8B43F07F4343F47F0343F40043F2
:1042C00043F080039BB21380FB8803F04003002B74
:1042D0001FD1FB681B681A46BB681B789B00134400
:1042E0001B889BB223F4E04323F07003BB83FB687D
:1042F0001B681A46BB681B789B001A44BB8B43F0B3
:104300007F4343F47F0343F4004343F0C0039BB275
:1043100013807B8B002B08D0FB681868BB68596939
:10432000BB685A897B8B05F0EBFD7B8B18462037E9
:10433000BD4680BD80B5A4B000AFF860B96013463B
:10434000FB80FB8803F04003002B00F0DD81FB685D
:104350001B68B3F850309BB21A46BB681B78DB0071
:10436000134402335B00FA681268134403F5806358
:104370001B88C3F30903A7F88830BB689A69B7F8AC
:1043800088309A4207D9BB689A69B7F88830D21A40
:10439000BB689A6102E0BB6800229A61BB689B69B6
:1043A000002B40F0B980BB685B78002B26D1FB68FE
:1043B0001B68FB62FB681B68B3F850309BB21A465F
:1043C000FB6A1344FB62BB681B781A01FB6A134447
:1043D00003F20443BB62BB6A1B889BB2C3F30903AD
:1043E0009AB2BB6A1A80BB6A1B889BB26FEA4343CE
:1043F0006FEA53439AB2BB6A1A801AE0BB685B78D3
:10440000012B16D1FB681B687B63FB681B68B3F844
:1044100050309BB21A467B6B13447B63BB681B789E
:104420001A017B6B134403F204433B633B6B002292
:104430001A80FB681B687B62BB685B78002B26D107
:10444000FB681B68FB61FB681B68B3F850309BB2CC
:104450001A46FB691344FB61BB681B781A01FB69B0
:10446000134403F20C43BB61BB691B889BB2C3F3CB
:1044700009039AB2BB691A80BB691B889BB26FEAB9
:1044800043436FEA53439AB2BB691A8017E0BB6893
:104490005B78012B13D1FB681B68B3F850309BB2DB
:1044A0001A467B6A13447B62BB681B781A017B6ADD
:1044B000134403F20C433B623B6A00221A80BB6840
:1044C0001B781946F86807F04EFBFB8803F480431D
:1044D000002B00F0FC82FB681B681A46BB681B7847
:1044E0009B0013441B889BB223F4E04323F070032A
:1044F000FB82FB681B681A46BB681B789B001A444A
:10450000FB8A43F07F4343F47F0343F4404343F08B
:1045100080039BB21380DAE2FB8803F48043002B14
:1045200021D0FB681B681A46BB681B789B001344AC
:104530001B889BB223F4E04323F07003A7F88A3072
:10454000FB681B681A46BB681B789B001A44B7F8C7
:104550008A3043F07F4343F47F0343F4404343F006
:1045600080039BB21380BB6893F82430012B40F08A
:10457000AE82BB685A69B7F888301A44BB685A6182
:10458000BB68DA69B7F888301A44BB68DA61BB687F
:104590001A6ABB681B699A420BD3BB681B69C7F8D0
:1045A0008C30BB681A6AD7F88C30D21ABB681A6292
:1045B00017E0BB681B6A002B08D1B7F88830C7F832
:1045C0008C30BB68002283F824200AE0BB680022FC
:1045D00083F82420BB681B6AC7F88C30BB680022B4
:1045E0001A62BB685B78002B65D1FB681B68FB63B4
:1045F000FB681B68B3F850309BB21A46FB6B134440
:10460000FB63BB681B781A01FB6B134403F2044382
:10461000BB63BB6B1B889BB2C3F309039AB2BB6B32
:104620001A80D7F88C30002B0AD1BB6B1B889BB249
:104630006FEA43436FEA53439AB2BB6B1A8057E069
:10464000D7F88C303E2B18D8D7F88C305B08BB6479
:10465000D7F88C3003F00103002B02D0BB6C013380
:10466000BB64BB6B1B889AB2BB6C9BB29B029BB2B8
:1046700013439AB2BB6B1A803AE0D7F88C305B09CF
:10468000BB64D7F88C3003F01F03002B02D1BB6C46
:10469000013BBB64BB6B1B889AB2BB6C9BB29B0299
:1046A0009BB213439BB26FEA43436FEA53439AB200
:1046B000BB6B1A801CE0BB685B78012B18D1FB68D0
:1046C0001B687B64FB681B68B3F850309BB21A46CA
:1046D0007B6C13447B64BB681B781A017B6C1344AE
:1046E00003F204433B64D7F88C309AB23B6C1A80D7
:1046F000FB681868BB685969BB681A89D7F88C30A1
:104700009BB205F0B6FBE2E1FB681B68B3F85030E2
:104710009BB21A46BB681B78DB00134406335B0070
:10472000FA681268134403F580631B88C3F3090316
:10473000A7F88830BB689A69B7F888309A4207D3DF
:10474000BB689A69B7F88830D21ABB689A6102E0F0
:10475000BB6800229A61BB689B69002B40F0C08057
:10476000BB685B78002B26D1FB681B68FB67FB6886
:104770001B68B3F850309BB21A46FB6F1344FB67BB
:10478000BB681B781A01FB6F134403F20443BB6739
:10479000BB6F1B889BB2C3F309039AB2BB6F1A802D
:1047A000BB6F1B889BB26FEA43436FEA53439AB2D5
:1047B000BB6F1A801AE0BB685B78012B16D1FB68CF
:1047C0001B687B66FB681B68B3F850309BB21A46C7
:1047D0007B6E13447B66BB681B781A017B6E1344A7
:1047E00003F204433B663B6E00221A80FB681B68A1
:1047F0007B67BB685B78002B2BD1FB681B68FB6673
:10480000FB681B68B3F850309BB21A46FB6E13442A
:10481000FB66BB681B781A01FB6E134403F20C4362
:10482000C7F88430D7F884301B889BB2C3F30903E0
:104830009AB2D7F884301A80D7F884301B889BB29C
:104840006FEA43436FEA53439AB2D7F884301A8031
:1048500017E0BB685B78012B13D1FB681B68B3F8CA
:1048600050309BB21A467B6F13447B67BB681B7842
:104870001A017B6F134403F20C433B673B6F00222A
:104880001A80BB681B781946F86807F06CF9FB883A
:1048900003F48043002B40F01A81FB681B681A4622
:1048A000BB681B789B0013441B889BB223F4E04336
:1048B00023F07003A7F88230FB681B681A46BB68B8
:1048C0001B789B001A44B7F8823043F07F4343F4CF
:1048D0007F0343F4404343F080039BB21380F6E030
:1048E000FB8803F48043002B21D1FB681B681A4628
:1048F000BB681B789B0013441B889BB223F4E043E6
:1049000023F07003A7F84E30FB681B681A46BB689B
:104910001B789B001A44B7F84E3043F07F4343F4B2
:104920007F0343F4404343F080039BB21380BB6892
:1049300093F82430012B40F0CA80BB685A69B7F85D
:1049400088301A44BB685A61BB68DA69B7F88830A6
:104950001A44BB68DA61BB681A6ABB681B699A4271
:104960000BD3BB681B69C7F88C30BB681A6AD7F8D1
:104970008C30D21ABB681A6217E0BB681B6A002B26
:1049800008D1B7F88830C7F88C30BB68002283F8AC
:1049900024200AE0BB681B6AC7F88C30BB68002281
:1049A0001A62BB68002283F82420FB681B687B65C1
:1049B000BB685B78002B65D1FB681B68FB65FB68F7
:1049C0001B68B3F850309BB21A46FB6D1344FB656D
:1049D000BB681B781A01FB6D134403F20C43BB65E3
:1049E000BB6D1B889BB2C3F309039AB2BB6D1A80DF
:1049F000D7F88C30002B0AD1BB6D1B889BB26FEAB5
:104A000043436FEA53439AB2BB6D1A8054E0D7F820
:104A10008C303E2B18D8D7F88C305B08BB66D7F8A3
:104A20008C3003F00103002B02D0BB6E0133BB6658
:104A3000BB6D1B889AB2BB6E9BB29B029BB21343A9
:104A40009AB2BB6D1A8037E0D7F88C305B09BB6631
:104A5000D7F88C3003F01F03002B02D1BB6E013B53
:104A6000BB66BB6D1B889AB2BB6E9BB29B029BB2AE
:104A700013439BB26FEA43436FEA53439AB2BB6D51
:104A80001A8019E0BB685B78012B15D1FB681B68A5
:104A9000B3F850309BB21A467B6D13447B65BB68FC
:104AA0001B781A017B6D134403F20C433B65D7F866
:104AB0008C309AB23B6D1A80FB681868BB685969E4
:104AC000BB685A89D7F88C309BB205F0D2F9FB68E5
:104AD0001B681A46BB681B789B0013441B889BB25B
:104AE00023F4E04323F04003BB82BB8A83F010032E
:104AF000BB82BB8A83F02003BB82FB681B681A461B
:104B0000BB681B789B001A44BB8A43F07F4343F485
:104B10007F0343F4004343F080039BB213800023E0
:104B200018469037BD4680BD80B487B000AFF860AE
:104B30007B600B467B8113463B817B8903F08003BE
:104B40009BB2002B0BD07B8903F0070213469B001E
:104B50001344DB001033FA6813447B6109E07A895F
:104B600013469B001344DB0003F5A873FA68134453
:104B70007B613B89002B07D17B6900221A737B681C
:104B80009AB27B69DA800BE07B6901221A737B6839
:104B90009AB27B691A817B681B0C9AB27B695A8135
:104BA000002318461C37BD465DF8047B70470000A3
:104BB00080B5ADF5007D00AF07F50073A3F5FE737A
:104BC000186007F50073A3F5FE731B68002B02D174
:104BD000012300F0F4BF07F50073A3F5FE731B6813
:104BE0001B6803F00103002B00F06D81B44B5B6880
:104BF00003F00C03042B0CD0B14B5B6803F00C03E7
:104C0000082B57D1AE4B5B6803F48033B3F5803F7C
:104C100050D14FF40033C7F8F031D7F8F03193FAA0
:104C2000A3F3C7F8EC31D7F8EC31B3FA83F3DBB276
:104C30003F2B02D8A24B1B6815E04FF40033C7F896
:104C4000E831D7F8E83193FAA3F3C7F8E4314FF429
:104C50000033C7F8E031D7F8E03193FAA3F3C7F88F
:104C6000DC31974B5B6A4FF40032C7F8D821D7F894
:104C7000D82192FAA2F2C7F8D421D7F8D421B2FAF7
:104C800082F2D2B242F02002D2B202F01F0201211F
:104C900001FA02F21340002B00F0148107F50073B3
:104CA000A3F5FE731B685B68002B40F00B810123AA
:104CB00000F085BF07F50073A3F5FE731B685B6802
:104CC000B3F5803F06D17E4B1B687D4A43F48033A9
:104CD000136036E007F50073A3F5FE731B685B688D
:104CE000002B0CD1764B1B68754A23F4803313607C
:104CF000734B1B68724A23F48023136021E007F58D
:104D00000073A3F5FE731B685B68B3F5A02F0CD18D
:104D10006B4B1B686A4A43F480231360684B1B6823
:104D2000674A43F4803313600BE0654B1B68644AA9
:104D300023F480331360624B1B68614A23F48023A1
:104D400013605F4BDB6A23F00F0207F50073A3F5D6
:104D5000FE731B689B685A491343CB6207F50073C7
:104D6000A3F5FE731B685B68002B54D0FCF72CFC8A
:104D7000C7F8F8010AE0FCF727FC0246D7F8F8313B
:104D8000D31A642B02D9032300F019BF4FF4003368
:104D9000C7F8D031D7F8D03193FAA3F3C7F8CC31A4
:104DA000D7F8CC31B3FA83F3DBB23F2B02D8444BB4
:104DB0001B6815E04FF40033C7F8C831D7F8C83185
:104DC00093FAA3F3C7F8C4314FF40033C7F8C031E6
:104DD000D7F8C03193FAA3F3C7F8BC31384B5B6AFC
:104DE0004FF40032C7F8B821D7F8B82192FAA2F2EE
:104DF000C7F8B421D7F8B421B2FA82F2D2B242F0A5
:104E00002002D2B202F01F02012101FA02F2134085
:104E1000002BB0D057E0FCF7D7FBC7F8F8010AE049
:104E2000FCF7D2FB0246D7F8F831D31A642B02D92B
:104E3000032300F0C4BE4FF40033C7F8B031D7F8F5
:104E4000B03193FAA3F3C7F8AC31D7F8AC31B3FA69
:104E500083F3DBB23F2B02D8194B1B6815E04FF4EC
:104E60000033C7F8A831D7F8A83193FAA3F3C7F8ED
:104E7000A4314FF40033C7F8A031D7F8A03193FA2A
:104E8000A3F3C7F89C310E4B5B6A4FF40032C7F8AE
:104E90009821D7F8982192FAA2F2C7F89421D7F86E
:104EA0009421B2FA82F2D2B242F02002D2B202F0DF
:104EB0001F02012101FA02F21340002BB0D102E0DF
:104EC0000010024000BF07F50073A3F5FE731B68D6
:104ED0001B6803F00203002B00F06C81CC4B5B6875
:104EE00003F00C03002B0BD0C94B5B6803F00C03E1
:104EF000082B6DD1C64B5B6803F48033002B67D160
:104F00000223C7F89031D7F8903193FAA3F3C7F88A
:104F10008C31D7F88C31B3FA83F3DBB23F2B02D854
:104F2000BB4B1B6813E00223C7F88831D7F88831E0
:104F300093FAA3F3C7F884310223C7F88031D7F876
:104F4000803193FAA3F3C7F87C31B14B5B6A02223C
:104F5000C7F87821D7F8782192FAA2F2C7F874211D
:104F6000D7F87421B2FA82F2D2B242F02002D2B261
:104F700002F01F02012101FA02F21340002B0AD0B5
:104F800007F50073A3F5FE731B681B69012B02D0A4
:104F9000012300F014BE9E4B1B6823F0F80207F5B6
:104FA0000073A3F5FE731B685B69F821C7F87011E5
:104FB000D7F8701191FAA1F1C7F86C11D7F86C11FC
:104FC000B1FA81F1C9B28B40914913430B60F1E012
:104FD00007F50073A3F5FE731B681B69002B00F037
:104FE00083800123C7F86831D7F8683193FAA3F3B7
:104FF000C7F86431D7F86431B3FA83F3DBB203F155
:10500000845303F584139B001A4601231360FCF7B5
:10501000DBFAC7F8F8010AE0FCF7D6FA0246D7F83F
:10502000F831D31A022B02D9032300F0C8BD0223A2
:10503000C7F86031D7F8603193FAA3F3C7F85C3151
:10504000D7F85C31B3FA83F3DBB23F2B02D8704B55
:105050001B6813E00223C7F85831D7F8583193FA88
:10506000A3F3C7F854310223C7F85031D7F85031B1
:1050700093FAA3F3C7F84C31654B5B6A0222C7F879
:105080004821D7F8482192FAA2F2C7F84421D7F86C
:105090004421B2FA82F2D2B242F02002D2B202F03D
:1050A0001F02012101FA02F21340002BB4D0584B29
:1050B0001B6823F0F80207F50073A3F5FE731B6865
:1050C0005B69F821C7F84011D7F8401191FAA1F1B6
:1050D000C7F83C11D7F83C11B1FA81F1C9B28B4045
:1050E0004B4913430B6065E00123C7F83831D7F80B
:1050F000383193FAA3F3C7F83431D7F83431B3FA1F
:1051000083F3DBB203F1845303F584139B001A4647
:1051100000231360FCF758FAC7F8F8010AE0FCF71F
:1051200053FA0246D7F8F831D31A022B02D90323D7
:1051300000F045BD0223C7F83031D7F8303193FA7B
:10514000A3F3C7F82C31D7F82C31B3FA83F3DBB2D1
:105150003F2B02D82E4B1B6813E00223C7F82831DF
:10516000D7F8283193FAA3F3C7F824310223C7F8FC
:105170002031D7F8203193FAA3F3C7F81C31244B20
:105180005B6A0222C7F81821D7F8182192FAA2F216
:10519000C7F81421D7F81421B2FA82F2D2B242F041
:1051A0002002D2B202F01F02012101FA02F21340E2
:1051B000002BB4D107F50073A3F5FE731B681B68C1
:1051C00003F00803002B00F0158107F50073A3F529
:1051D000FE731B689B69002B7ED00123C7F810313A
:1051E000D7F8103193FAA3F3C7F80C31D7F80C3184
:1051F000B3FA83F3DBB21A46064B13449B001A46FC
:1052000001231360FCF7E0F9C7F8F8010FE000BFD5
:105210000010024020819010FCF7D6F90246D7F822
:10522000F831D31A022B02D9032300F0C8BC0223A1
:10523000C7F80831D7F8083193FAA3F3C7F8043157
:1052400007F50073A3F5807302221A6007F5007357
:10525000A3F580731B6893FAA3F207F50073A3F517
:1052600082731A6007F50073A3F5847302221A6033
:1052700007F50073A3F584731B6893FAA3F207F58F
:105280000073A3F586731A60B04B5A6A07F5007372
:10529000A3F588730221196007F50073A3F58873DD
:1052A0001B6893FAA3F107F50073A3F58A731960DD
:1052B00007F50073A3F58A731B68B3FA83F3DBB2B7
:1052C00043F06003DBB203F01F03012101FA03F393
:1052D0001340002BA0D08DE007F50073A3F58C736D
:1052E00001221A6007F50073A3F58C731B6893FA0B
:1052F000A3F207F50073A3F58E731A6007F5007328
:10530000A3F58E731B68B3FA83F3DBB21A46904B96
:1053100013449B001A4600231360FCF755F9C7F8A5
:10532000F8010AE0FCF750F90246D7F8F831D31A31
:10533000022B02D9032300F042BC07F50073A3F54A
:10534000907302221A6007F50073A3F590731B682F
:1053500093FAA3F207F50073A3F592731A6007F5A9
:105360000073A3F5947302221A6007F50073A3F586
:1053700094731B6893FAA3F207F50073A3F5967371
:105380001A6007F50073A3F5987302221A6007F5F7
:105390000073A3F598731B6893FAA3F207F50073E3
:1053A000A3F59A731A60694B5A6A07F50073A3F55F
:1053B0009C730221196007F50073A3F59C731B68A9
:1053C00093FAA3F107F50073A3F59E73196007F52F
:1053D0000073A3F59E731B68B3FA83F3DBB243F04B
:1053E0006003DBB203F01F03012101FA03F3134052
:1053F000002B97D107F50073A3F5FE731B681B689C
:1054000003F00403002B00F09E81002387F8FF3196
:105410004E4BDB6903F08053002B16D14B4BDB69FD
:105420004A4A43F08053D361484BDB6903F0805212
:1054300007F50073A3F5FC731A6007F50073A3F575
:10544000FC731B68012387F8FF31424B1B6803F490
:105450008073002B1AD13F4B1B683E4A43F4807384
:105460001360FCF7B1F8C7F8F80109E0FCF7ACF8F5
:105470000246D7F8F831D31A642B01D903239EE3EF
:10548000344B1B6803F48073002BEFD007F50073D7
:10549000A3F5FE731B68DB68012B06D12B4B1B6A3F
:1054A0002A4A43F00103136235E007F50073A3F5C0
:1054B000FE731B68DB68002B0CD1244B1B6A234A4C
:1054C00023F001031362214B1B6A204A23F00403DB
:1054D000136220E007F50073A3F5FE731B68DB6819
:1054E000052B0CD1194B1B6A184A43F004031362B5
:1054F000164B1B6A154A43F0010313620BE0134B72
:105500001B6A124A23F001031362104B1B6A0F4AF5
:1055100023F00403136207F50073A3F5FE731B6801
:10552000DB68002B00F08780FCF74EF8C7F8F80125
:1055300012E0FCF749F80246D7F8F831D31A41F2E5
:105540008832934208D9032339E300BF0010024098
:10555000208190100070004007F50073A3F5A07340
:1055600002221A6007F50073A3F5A0731B6893FA73
:10557000A3F207F50073A3F5A2731A6007F5007391
:10558000A3F5A47302221A6007F50073A3F5A473B0
:105590001B6893FAA3F207F50073A3F5A6731A60CC
:1055A00007F50073A3F5A6731B68B3FA83F3DBB2A8
:1055B00023F05F03DBB2002B02D1984B1B6A13E090
:1055C00007F50073A3F5A87302221A6007F50073AC
:1055D000A3F5A8731B6893FAA3F207F50073A3F56C
:1055E000AA731A608D4B5B6A07F50072A2F5AC7264
:1055F0000221116007F50072A2F5AC72126892FAEE
:10560000A2F107F50072A2F5AE72116007F5007203
:10561000A2F5AE721268B2FA82F2D2B242F0400241
:10562000D2B202F01F02012101FA02F21340002B54
:105630003FF47FAF7DE0FBF7C7FFC7F8F8010BE051
:10564000FBF7C2FF0246D7F8F831D31A41F288328D
:10565000934201D90323B2E207F50073A3F5B073B7
:1056600002221A6007F50073A3F5B0731B6893FA62
:10567000A3F207F50073A3F5B2731A6007F5007380
:10568000A3F5B47302221A6007F50073A3F5B4738F
:105690001B6893FAA3F207F50073A3F5B6731A60BB
:1056A00007F50073A3F5B6731B68B3FA83F3DBB297
:1056B00023F05F03DBB2002B02D1584B1B6A13E0CF
:1056C00007F50073A3F5B87302221A6007F500739B
:1056D000A3F5B8731B6893FAA3F207F50073A3F55B
:1056E000BA731A604D4B5B6A07F50072A2F5BC7283
:1056F0000221116007F50072A2F5BC72126892FADD
:10570000A2F107F50072A2F5BE72116007F50072F2
:10571000A2F5BE721268B2FA82F2D2B242F0400230
:10572000D2B202F01F02012101FA02F21340002B53
:1057300086D197F8FF31012B05D1384BDB69374A09
:1057400023F08053D36107F50073A3F5FE731B6844
:10575000DB69002B00F03282304B5B6803F00C03F6
:10576000082B00F0018207F50073A3F5FE731B6898
:10577000DB69022B40F0578107F50073A3F5C07376
:105780004FF080721A6007F50073A3F5C0731B68B1
:1057900093FAA3F207F50073A3F5C2731A6007F535
:1057A0000073A3F5C2731B68B3FA83F3DBB203F192
:1057B000845303F584139B001A4600231360FBF700
:1057C00003FFC7F8F80109E0FBF7FEFE0246D7F831
:1057D000F831D31A022B01D90323F0E107F5007346
:1057E000A3F5C4734FF000721A6007F50073A3F5B8
:1057F000C4731B6893FAA3F207F50073A3F5C6738D
:105800001A6007F50073A3F5C6731B68B3FA83F338
:10581000DBB23F2B04D8014B1B6829E0001002408B
:1058200007F50073A3F5C8734FF000721A6007F50F
:105830000073A3F5C8731B6893FAA3F207F500730E
:10584000A3F5CA731A6007F50073A3F5CC734FF084
:1058500000721A6007F50073A3F5CC731B6893FA06
:10586000A3F207F50073A3F5CE731A60C34B5B6A0E
:1058700007F50072A2F5D0724FF00071116007F5C4
:105880000072A2F5D072126892FAA2F107F50072C6
:10589000A2F5D272116007F50072A2F5D2721268F9
:1058A000B2FA82F2D2B242F02002D2B202F01F0269
:1058B000012101FA02F21340002B85D1AF4B5B6846
:1058C00023F4741207F50073A3F5FE731B68596A7D
:1058D00007F50073A3F5FE731B681B6A0B43A7490A
:1058E00013434B6007F50073A3F5D4734FF0807238
:1058F0001A6007F50073A3F5D4731B6893FAA3F23B
:1059000007F50073A3F5D6731A6007F50073A3F5C6
:10591000D6731B68B3FA83F3DBB203F1845303F548
:1059200084139B001A4601231360FBF74DFEC7F852
:10593000F80109E0FBF748FE0246D7F8F831D31A20
:10594000022B01D903233AE107F50073A3F5D873BD
:105950004FF000721A6007F50073A3F5D8731B6847
:1059600093FAA3F207F50073A3F5DA731A6007F54B
:105970000073A3F5DA731B68B3FA83F3DBB23F2B32
:1059800002D87E4B1B6827E007F50073A3F5DC7394
:105990004FF000721A6007F50073A3F5DC731B6803
:1059A00093FAA3F207F50073A3F5DE731A6007F507
:1059B0000073A3F5E0734FF000721A6007F50073EF
:1059C000A3F5E0731B6893FAA3F207F50073A3F540
:1059D000E2731A60694B5B6A07F50072A2F5E47224
:1059E0004FF00071116007F50072A2F5E4721268C1
:1059F00092FAA2F107F50072A2F5E672116007F5BE
:105A00000072A2F5E6721268B2FA82F2D2B242F0E5
:105A10002002D2B202F01F02012101FA02F2134069
:105A2000002B87D0CAE007F50073A3F5E8734FF0A9
:105A300080721A6007F50073A3F5E8731B6893FA88
:105A4000A3F207F50073A3F5EA731A6007F5007374
:105A5000A3F5EA731B68B3FA83F3DBB203F1845353
:105A600003F584139B001A4600231360FBF7ACFD7B
:105A7000C7F8F80109E0FBF7A7FD0246D7F8F831AF
:105A8000D31A022B01D9032399E007F50073A3F57C
:105A9000EC734FF000721A6007F50073A3F5EC7316
:105AA0001B6893FAA3F207F50073A3F5EE731A606F
:105AB00007F50073A3F5EE731B68B3FA83F3DBB24B
:105AC0003F2B02D82D4B1B6827E007F50073A3F589
:105AD000F0734FF000721A6007F50073A3F5F073CE
